{
  "_format": "hh-sol-artifact-1",
  "contractName": "WeatherOracle",
  "sourceName": "contracts/WeatherOracle.sol",
  "abi": [
    {
      "inputs": [],
      "stateMutability": "nonpayable",
      "type": "constructor"
    },
    {
      "inputs": [
        {
          "internalType": "address",
          "name": "owner",
          "type": "address"
        }
      ],
      "name": "OwnableInvalidOwner",
      "type": "error"
    },
    {
      "inputs": [
        {
          "internalType": "address",
          "name": "account",
          "type": "address"
        }
      ],
      "name": "OwnableUnauthorizedAccount",
      "type": "error"
    },
    {
      "anonymous": false,
      "inputs": [
        {
          "indexed": false,
          "internalType": "uint256",
          "name": "daysWithoutRain",
          "type": "uint256"
        },
        {
          "indexed": false,
          "internalType": "uint256",
          "name": "timestamp",
          "type": "uint256"
        }
      ],
      "name": "DroughtUpdated",
      "type": "event"
    },
    {
      "anonymous": false,
      "inputs": [
        {
          "indexed": true,
          "internalType": "address",
          "name": "previousOwner",
          "type": "address"
        },
        {
          "indexed": true,
          "internalType": "address",
          "name": "newOwner",
          "type": "address"
        }
      ],
      "name": "OwnershipTransferred",
      "type": "event"
    },
    {
      "anonymous": false,
      "inputs": [
        {
          "indexed": false,
          "internalType": "uint256",
          "name": "rainfall24h",
          "type": "uint256"
        },
        {
          "indexed": false,
          "internalType": "uint256",
          "name": "rainfall30d",
          "type": "uint256"
        },
        {
          "indexed": false,
          "internalType": "uint256",
          "name": "timestamp",
          "type": "uint256"
        }
      ],
      "name": "RainfallUpdated",
      "type": "event"
    },
    {
      "anonymous": false,
      "inputs": [
        {
          "indexed": false,
          "internalType": "int256",
          "name": "temperature",
          "type": "int256"
        },
        {
          "indexed": false,
          "internalType": "uint256",
          "name": "timestamp",
          "type": "uint256"
        }
      ],
      "name": "TemperatureUpdated",
      "type": "event"
    },
    {
      "anonymous": false,
      "inputs": [
        {
          "indexed": false,
          "internalType": "uint256",
          "name": "windSpeed",
          "type": "uint256"
        },
        {
          "indexed": false,
          "internalType": "uint256",
          "name": "timestamp",
          "type": "uint256"
        }
      ],
      "name": "WindSpeedUpdated",
      "type": "event"
    },
    {
      "inputs": [],
      "name": "getAllWeatherData",
      "outputs": [
        {
          "internalType": "int256",
          "name": "",
          "type": "int256"
        },
        {
          "internalType": "uint256",
          "name": "",
          "type": "uint256"
        },
        {
          "internalType": "uint256",
          "name": "",
          "type": "uint256"
        },
        {
          "internalType": "uint256",
          "name": "",
          "type": "uint256"
        },
        {
          "internalType": "uint256",
          "name": "",
          "type": "uint256"
        },
        {
          "internalType": "uint256",
          "name": "",
          "type": "uint256"
        }
      ],
      "stateMutability": "view",
      "type": "function"
    },
    {
      "inputs": [],
      "name": "getLastUpdated",
      "outputs": [
        {
          "internalType": "uint256",
          "name": "",
          "type": "uint256"
        }
      ],
      "stateMutability": "view",
      "type": "function"
    },
    {
      "inputs": [],
      "name": "getRainfallData",
      "outputs": [
        {
          "internalType": "uint256",
          "name": "",
          "type": "uint256"
        },
        {
          "internalType": "uint256",
          "name": "",
          "type": "uint256"
        },
        {
          "internalType": "uint256",
          "name": "",
          "type": "uint256"
        }
      ],
      "stateMutability": "view",
      "type": "function"
    },
    {
      "inputs": [],
      "name": "getTemperature",
      "outputs": [
        {
          "internalType": "int256",
          "name": "",
          "type": "int256"
        }
      ],
      "stateMutability": "view",
      "type": "function"
    },
    {
      "inputs": [],
      "name": "getWindSpeed",
      "outputs": [
        {
          "internalType": "uint256",
          "name": "",
          "type": "uint256"
        }
      ],
      "stateMutability": "view",
      "type": "function"
    },
    {
      "inputs": [],
      "name": "owner",
      "outputs": [
        {
          "internalType": "address",
          "name": "",
          "type": "address"
        }
      ],
      "stateMutability": "view",
      "type": "function"
    },
    {
      "inputs": [],
      "name": "renounceOwnership",
      "outputs": [],
      "stateMutability": "nonpayable",
      "type": "function"
    },
    {
      "inputs": [
        {
          "internalType": "address",
          "name": "newOwner",
          "type": "address"
        }
      ],
      "name": "transferOwnership",
      "outputs": [],
      "stateMutability": "nonpayable",
      "type": "function"
    },
    {
      "inputs": [
        {
          "internalType": "uint256",
          "name": "_daysWithoutRain",
          "type": "uint256"
        }
      ],
      "name": "updateDrought",
      "outputs": [],
      "stateMutability": "nonpayable",
      "type": "function"
    },
    {
      "inputs": [
        {
          "internalType": "uint256",
          "name": "_rainfall24h",
          "type": "uint256"
        },
        {
          "internalType": "uint256",
          "name": "_rainfall30d",
          "type": "uint256"
        }
      ],
      "name": "updateRainfall",
      "outputs": [],
      "stateMutability": "nonpayable",
      "type": "function"
    },
    {
      "inputs": [
        {
          "internalType": "int256",
          "name": "_temperature",
          "type": "int256"
        }
      ],
      "name": "updateTemperature",
      "outputs": [],
      "stateMutability": "nonpayable",
      "type": "function"
    },
    {
      "inputs": [
        {
          "internalType": "uint256",
          "name": "_windSpeed",
          "type": "uint256"
        }
      ],
      "name": "updateWindSpeed",
      "outputs": [],
      "stateMutability": "nonpayable",
      "type": "function"
    }
  ],
  "bytecode": "0x608060405234801561001057600080fd5b5033600073ffffffffffffffffffffffffffffffffffffffff168173ffffffffffffffffffffffffffffffffffffffff16036100845760006040517f1e4fbdf700000000000000000000000000000000000000000000000000000000815260040161007b91906101cd565b60405180910390fd5b610093816100c860201b60201c565b5060c86001819055506000600281905550606460038190555060026004819055506064600581905550426006819055506101e8565b60008060009054906101000a900473ffffffffffffffffffffffffffffffffffffffff169050816000806101000a81548173ffffffffffffffffffffffffffffffffffffffff021916908373ffffffffffffffffffffffffffffffffffffffff1602179055508173ffffffffffffffffffffffffffffffffffffffff168173ffffffffffffffffffffffffffffffffffffffff167f8be0079c531659141344cd1fd0a4f28419497f9722a3daafe3b4186f6b6457e060405160405180910390a35050565b600073ffffffffffffffffffffffffffffffffffffffff82169050919050565b60006101b78261018c565b9050919050565b6101c7816101ac565b82525050565b60006020820190506101e260008301846101be565b92915050565b61091e806101f76000396000f3fe608060405234801561001057600080fd5b50600436106100b45760003560e01c806388f072c81161007157806388f072c81461015a5780638da5cb5b146101765780639689904114610194578063d200bca8146101b2578063d7f06528146101d2578063f2fde38b146101ee576100b4565b8063076e48a1146100b95780632e3678d0146100d55780636421d04b146100f1578063715018a61461010f57806378121dd41461011957806384f28a4214610137575b600080fd5b6100d360048036038101906100ce9190610625565b61020a565b005b6100ef60048036038101906100ea9190610688565b61025c565b005b6100f96102ae565b60405161010691906106c4565b60405180910390f35b6101176102b8565b005b6101216102cc565b60405161012e91906106ee565b60405180910390f35b61013f6102d6565b60405161015196959493929190610709565b60405180910390f35b610174600480360381019061016f919061076a565b610305565b005b61017e610373565b60405161018b91906107eb565b60405180910390f35b61019c61039c565b6040516101a991906106ee565b60405180910390f35b6101ba6103a6565b6040516101c993929190610806565b60405180910390f35b6101ec60048036038101906101e79190610688565b6103bf565b005b61020860048036038101906102039190610869565b610411565b005b610212610497565b80600181905550426006819055507fff4b07183bb7ec2f38178339d18acea8d2aa91c0f524b762e11232ad40292daf8142604051610251929190610896565b60405180910390a150565b610264610497565b80600481905550426006819055507ff87734e1500e52055705139fa79eee043684871d1d7c0196884cb9c57b3127fa81426040516102a39291906108bf565b60405180910390a150565b6000600154905090565b6102c0610497565b6102ca600061051e565b565b6000600654905090565b600080600080600080600154600254600354600454600554600654955095509550955095509550909192939495565b61030d610497565b8160028190555080600381905550600082111561032d5760006004819055505b426006819055507f9a51e93699755c55539afb767735d6237c486b9eb763c2b9cffc7d5ab10aefea82824260405161036793929190610806565b60405180910390a15050565b60008060009054906101000a900473ffffffffffffffffffffffffffffffffffffffff16905090565b6000600554905090565b6000806000600254600354600454925092509250909192565b6103c7610497565b80600581905550426006819055507f75a6db8e12228abe3b6eb72d6cfb92f3d69dd13e3f5ae39645688f087657bb7181426040516104069291906108bf565b60405180910390a150565b610419610497565b600073ffffffffffffffffffffffffffffffffffffffff168173ffffffffffffffffffffffffffffffffffffffff160361048b5760006040517f1e4fbdf700000000000000000000000000000000000000000000000000000000815260040161048291906107eb565b60405180910390fd5b6104948161051e565b50565b61049f6105e2565b73ffffffffffffffffffffffffffffffffffffffff166104bd610373565b73ffffffffffffffffffffffffffffffffffffffff161461051c576104e06105e2565b6040517f118cdaa700000000000000000000000000000000000000000000000000000000815260040161051391906107eb565b60405180910390fd5b565b60008060009054906101000a900473ffffffffffffffffffffffffffffffffffffffff169050816000806101000a81548173ffffffffffffffffffffffffffffffffffffffff021916908373ffffffffffffffffffffffffffffffffffffffff1602179055508173ffffffffffffffffffffffffffffffffffffffff168173ffffffffffffffffffffffffffffffffffffffff167f8be0079c531659141344cd1fd0a4f28419497f9722a3daafe3b4186f6b6457e060405160405180910390a35050565b600033905090565b600080fd5b6000819050919050565b610602816105ef565b811461060d57600080fd5b50565b60008135905061061f816105f9565b92915050565b60006020828403121561063b5761063a6105ea565b5b600061064984828501610610565b91505092915050565b6000819050919050565b61066581610652565b811461067057600080fd5b50565b6000813590506106828161065c565b92915050565b60006020828403121561069e5761069d6105ea565b5b60006106ac84828501610673565b91505092915050565b6106be816105ef565b82525050565b60006020820190506106d960008301846106b5565b92915050565b6106e881610652565b82525050565b600060208201905061070360008301846106df565b92915050565b600060c08201905061071e60008301896106b5565b61072b60208301886106df565b61073860408301876106df565b61074560608301866106df565b61075260808301856106df565b61075f60a08301846106df565b979650505050505050565b60008060408385031215610781576107806105ea565b5b600061078f85828601610673565b92505060206107a085828601610673565b9150509250929050565b600073ffffffffffffffffffffffffffffffffffffffff82169050919050565b60006107d5826107aa565b9050919050565b6107e5816107ca565b82525050565b600060208201905061080060008301846107dc565b92915050565b600060608201905061081b60008301866106df565b61082860208301856106df565b61083560408301846106df565b949350505050565b610846816107ca565b811461085157600080fd5b50565b6000813590506108638161083d565b92915050565b60006020828403121561087f5761087e6105ea565b5b600061088d84828501610854565b91505092915050565b60006040820190506108ab60008301856106b5565b6108b860208301846106df565b9392505050565b60006040820190506108d460008301856106df565b6108e160208301846106df565b939250505056fea2646970667358221220ff2bb006f09e703b97bfab49e0dda940fe3af2b0fc81891229aefb38d998cbbc64736f6c63430008140033",
  "linkReferences": {},
  "deployedLinkReferences": {}
}