{
  "_format": "hh-sol-artifact-1",
  "contractName": "WeatherInsurance",
  "sourceName": "contracts/WeatherInsurance.sol",
  "abi": [
    {
      "inputs": [
        {
          "internalType": "address",
          "name": "_oracleAddress",
          "type": "address"
        }
      ],
      "stateMutability": "nonpayable",
      "type": "constructor"
    },
    {
      "inputs": [
        {
          "internalType": "address",
          "name": "owner",
          "type": "address"
        }
      ],
      "name": "OwnableInvalidOwner",
      "type": "error"
    },
    {
      "inputs": [
        {
          "internalType": "address",
          "name": "account",
          "type": "address"
        }
      ],
      "name": "OwnableUnauthorizedAccount",
      "type": "error"
    },
    {
      "inputs": [],
      "name": "ReentrancyGuardReentrantCall",
      "type": "error"
    },
    {
      "anonymous": false,
      "inputs": [
        {
          "indexed": true,
          "internalType": "address",
          "name": "previousOwner",
          "type": "address"
        },
        {
          "indexed": true,
          "internalType": "address",
          "name": "newOwner",
          "type": "address"
        }
      ],
      "name": "OwnershipTransferred",
      "type": "event"
    },
    {
      "anonymous": false,
      "inputs": [
        {
          "indexed": true,
          "internalType": "address",
          "name": "user",
          "type": "address"
        },
        {
          "indexed": false,
          "internalType": "uint256",
          "name": "payoutAmount",
          "type": "uint256"
        }
      ],
      "name": "PayoutProcessed",
      "type": "event"
    },
    {
      "anonymous": false,
      "inputs": [
        {
          "indexed": true,
          "internalType": "address",
          "name": "user",
          "type": "address"
        },
        {
          "indexed": false,
          "internalType": "uint256",
          "name": "amount",
          "type": "uint256"
        },
        {
          "indexed": false,
          "internalType": "int256",
          "name": "minTemp",
          "type": "int256"
        },
        {
          "indexed": false,
          "internalType": "int256",
          "name": "maxTemp",
          "type": "int256"
        }
      ],
      "name": "PolicyPurchased",
      "type": "event"
    },
    {
      "inputs": [],
      "name": "COVERAGE_MULTIPLIER",
      "outputs": [
        {
          "internalType": "uint256",
          "name": "",
          "type": "uint256"
        }
      ],
      "stateMutability": "view",
      "type": "function"
    },
    {
      "inputs": [],
      "name": "PREMIUM_PERCENTAGE",
      "outputs": [
        {
          "internalType": "uint256",
          "name": "",
          "type": "uint256"
        }
      ],
      "stateMutability": "view",
      "type": "function"
    },
    {
      "inputs": [
        {
          "internalType": "int256",
          "name": "_minTemp",
          "type": "int256"
        },
        {
          "internalType": "int256",
          "name": "_maxTemp",
          "type": "int256"
        }
      ],
      "name": "buyPolicy",
      "outputs": [],
      "stateMutability": "payable",
      "type": "function"
    },
    {
      "inputs": [],
      "name": "checkWeatherAndProcessPayout",
      "outputs": [],
      "stateMutability": "nonpayable",
      "type": "function"
    },
    {
      "inputs": [],
      "name": "getContractBalance",
      "outputs": [
        {
          "internalType": "uint256",
          "name": "",
          "type": "uint256"
        }
      ],
      "stateMutability": "view",
      "type": "function"
    },
    {
      "inputs": [
        {
          "internalType": "address",
          "name": "_address",
          "type": "address"
        }
      ],
      "name": "getPolicy",
      "outputs": [
        {
          "components": [
            {
              "internalType": "address",
              "name": "policyHolder",
              "type": "address"
            },
            {
              "internalType": "uint256",
              "name": "premiumPaid",
              "type": "uint256"
            },
            {
              "internalType": "uint256",
              "name": "insuredAmount",
              "type": "uint256"
            },
            {
              "internalType": "int256",
              "name": "minTemperature",
              "type": "int256"
            },
            {
              "internalType": "int256",
              "name": "maxTemperature",
              "type": "int256"
            },
            {
              "internalType": "bool",
              "name": "isActive",
              "type": "bool"
            }
          ],
          "internalType": "struct WeatherInsurance.Policy",
          "name": "",
          "type": "tuple"
        }
      ],
      "stateMutability": "view",
      "type": "function"
    },
    {
      "inputs": [
        {
          "internalType": "address",
          "name": "_address",
          "type": "address"
        }
      ],
      "name": "hasActivePolicy",
      "outputs": [
        {
          "internalType": "bool",
          "name": "",
          "type": "bool"
        }
      ],
      "stateMutability": "view",
      "type": "function"
    },
    {
      "inputs": [],
      "name": "oracle",
      "outputs": [
        {
          "internalType": "contract WeatherOracle",
          "name": "",
          "type": "address"
        }
      ],
      "stateMutability": "view",
      "type": "function"
    },
    {
      "inputs": [],
      "name": "owner",
      "outputs": [
        {
          "internalType": "address",
          "name": "",
          "type": "address"
        }
      ],
      "stateMutability": "view",
      "type": "function"
    },
    {
      "inputs": [
        {
          "internalType": "address",
          "name": "",
          "type": "address"
        }
      ],
      "name": "policies",
      "outputs": [
        {
          "internalType": "address",
          "name": "policyHolder",
          "type": "address"
        },
        {
          "internalType": "uint256",
          "name": "premiumPaid",
          "type": "uint256"
        },
        {
          "internalType": "uint256",
          "name": "insuredAmount",
          "type": "uint256"
        },
        {
          "internalType": "int256",
          "name": "minTemperature",
          "type": "int256"
        },
        {
          "internalType": "int256",
          "name": "maxTemperature",
          "type": "int256"
        },
        {
          "internalType": "bool",
          "name": "isActive",
          "type": "bool"
        }
      ],
      "stateMutability": "view",
      "type": "function"
    },
    {
      "inputs": [],
      "name": "renounceOwnership",
      "outputs": [],
      "stateMutability": "nonpayable",
      "type": "function"
    },
    {
      "inputs": [
        {
          "internalType": "address",
          "name": "newOwner",
          "type": "address"
        }
      ],
      "name": "transferOwnership",
      "outputs": [],
      "stateMutability": "nonpayable",
      "type": "function"
    },
    {
      "inputs": [
        {
          "internalType": "address",
          "name": "_newOracleAddress",
          "type": "address"
        }
      ],
      "name": "updateOracle",
      "outputs": [],
      "stateMutability": "nonpayable",
      "type": "function"
    },
    {
      "inputs": [
        {
          "internalType": "uint256",
          "name": "_amount",
          "type": "uint256"
        }
      ],
      "name": "withdraw",
      "outputs": [],
      "stateMutability": "nonpayable",
      "type": "function"
    }
  ],
  "bytecode": "0x60806040523480156200001157600080fd5b50604051620019053803806200190583398181016040528101906200003791906200023f565b336001600081905550600073ffffffffffffffffffffffffffffffffffffffff168173ffffffffffffffffffffffffffffffffffffffff1603620000b55760006040517f1e4fbdf7000000000000000000000000000000000000000000000000000000008152600401620000ac919062000282565b60405180910390fd5b620000c6816200010f60201b60201c565b5080600260006101000a81548173ffffffffffffffffffffffffffffffffffffffff021916908373ffffffffffffffffffffffffffffffffffffffff160217905550506200029f565b6000600160009054906101000a900473ffffffffffffffffffffffffffffffffffffffff16905081600160006101000a81548173ffffffffffffffffffffffffffffffffffffffff021916908373ffffffffffffffffffffffffffffffffffffffff1602179055508173ffffffffffffffffffffffffffffffffffffffff168173ffffffffffffffffffffffffffffffffffffffff167f8be0079c531659141344cd1fd0a4f28419497f9722a3daafe3b4186f6b6457e060405160405180910390a35050565b600080fd5b600073ffffffffffffffffffffffffffffffffffffffff82169050919050565b60006200020782620001da565b9050919050565b6200021981620001fa565b81146200022557600080fd5b50565b60008151905062000239816200020e565b92915050565b600060208284031215620002585762000257620001d5565b5b6000620002688482850162000228565b91505092915050565b6200027c81620001fa565b82525050565b600060208201905062000299600083018462000271565b92915050565b61165680620002af6000396000f3fe6080604052600436106100dd5760003560e01c806377e7f51a1161007f578063b0d5e4d511610059578063b0d5e4d5146102a1578063cdabe3be146102de578063dcd9f1af146102fa578063f2fde38b14610311576100dd565b806377e7f51a146102205780637dc0d1d01461024b5780638da5cb5b14610276576100dd565b80632e1a7d4d116100bb5780632e1a7d4d146101785780633791dc6a146101a15780636f9fb98a146101de578063715018a614610209576100dd565b80631b2f2e9d146100e25780631cb44dfc1461010d57806320e9869814610136575b600080fd5b3480156100ee57600080fd5b506100f761033a565b6040516101049190610e75565b60405180910390f35b34801561011957600080fd5b50610134600480360381019061012f9190610ef3565b61033f565b005b34801561014257600080fd5b5061015d60048036038101906101589190610ef3565b61038b565b60405161016f96959493929190610f63565b60405180910390f35b34801561018457600080fd5b5061019f600480360381019061019a9190610ff0565b6103f4565b005b3480156101ad57600080fd5b506101c860048036038101906101c39190610ef3565b6104f6565b6040516101d591906110d4565b60405180910390f35b3480156101ea57600080fd5b506101f36105e8565b6040516102009190610e75565b60405180910390f35b34801561021557600080fd5b5061021e6105f0565b005b34801561022c57600080fd5b50610235610604565b6040516102429190610e75565b60405180910390f35b34801561025757600080fd5b50610260610609565b60405161026d919061114e565b60405180910390f35b34801561028257600080fd5b5061028b61062f565b6040516102989190611169565b60405180910390f35b3480156102ad57600080fd5b506102c860048036038101906102c39190610ef3565b610659565b6040516102d59190611184565b60405180910390f35b6102f860048036038101906102f391906111cb565b6106b2565b005b34801561030657600080fd5b5061030f610913565b005b34801561031d57600080fd5b5061033860048036038101906103339190610ef3565b610be3565b005b600281565b610347610c69565b80600260006101000a81548173ffffffffffffffffffffffffffffffffffffffff021916908373ffffffffffffffffffffffffffffffffffffffff16021790555050565b60036020528060005260406000206000915090508060000160009054906101000a900473ffffffffffffffffffffffffffffffffffffffff16908060010154908060020154908060030154908060040154908060050160009054906101000a900460ff16905086565b6103fc610c69565b4781111561043f576040517f08c379a000000000000000000000000000000000000000000000000000000000815260040161043690611268565b60405180910390fd5b600061044961062f565b73ffffffffffffffffffffffffffffffffffffffff168260405161046c906112b9565b60006040518083038185875af1925050503d80600081146104a9576040519150601f19603f3d011682016040523d82523d6000602084013e6104ae565b606091505b50509050806104f2576040517f08c379a00000000000000000000000000000000000000000000000000000000081526004016104e99061131a565b60405180910390fd5b5050565b6104fe610e0e565b600360008373ffffffffffffffffffffffffffffffffffffffff1673ffffffffffffffffffffffffffffffffffffffff1681526020019081526020016000206040518060c00160405290816000820160009054906101000a900473ffffffffffffffffffffffffffffffffffffffff1673ffffffffffffffffffffffffffffffffffffffff1673ffffffffffffffffffffffffffffffffffffffff168152602001600182015481526020016002820154815260200160038201548152602001600482015481526020016005820160009054906101000a900460ff1615151515815250509050919050565b600047905090565b6105f8610c69565b6106026000610cf0565b565b600581565b600260009054906101000a900473ffffffffffffffffffffffffffffffffffffffff1681565b6000600160009054906101000a900473ffffffffffffffffffffffffffffffffffffffff16905090565b6000600360008373ffffffffffffffffffffffffffffffffffffffff1673ffffffffffffffffffffffffffffffffffffffff16815260200190815260200160002060050160009054906101000a900460ff169050919050565b6106ba610db6565b600360003373ffffffffffffffffffffffffffffffffffffffff1673ffffffffffffffffffffffffffffffffffffffff16815260200190815260200160002060050160009054906101000a900460ff161561074a576040517f08c379a0000000000000000000000000000000000000000000000000000000008152600401610741906113ac565b60405180910390fd5b80821261078c576040517f08c379a00000000000000000000000000000000000000000000000000000000081526004016107839061143e565b60405180910390fd5b600060023461079b919061148d565b90506040518060c001604052803373ffffffffffffffffffffffffffffffffffffffff16815260200134815260200182815260200184815260200183815260200160011515815250600360003373ffffffffffffffffffffffffffffffffffffffff1673ffffffffffffffffffffffffffffffffffffffff16815260200190815260200160002060008201518160000160006101000a81548173ffffffffffffffffffffffffffffffffffffffff021916908373ffffffffffffffffffffffffffffffffffffffff1602179055506020820151816001015560408201518160020155606082015181600301556080820151816004015560a08201518160050160006101000a81548160ff0219169083151502179055509050503373ffffffffffffffffffffffffffffffffffffffff167f12667f1671a21c1a2cf2d3bc0a3d5d951955b8c4e5c0609dbc76f528d97584173485856040516108fe939291906114cf565b60405180910390a25061090f610dfc565b5050565b61091b610db6565b6000600360003373ffffffffffffffffffffffffffffffffffffffff1673ffffffffffffffffffffffffffffffffffffffff16815260200190815260200160002090508060050160009054906101000a900460ff166109af576040517f08c379a00000000000000000000000000000000000000000000000000000000081526004016109a690611552565b60405180910390fd5b6000600260009054906101000a900473ffffffffffffffffffffffffffffffffffffffff1673ffffffffffffffffffffffffffffffffffffffff16636421d04b6040518163ffffffff1660e01b8152600401602060405180830381865afa158015610a1e573d6000803e3d6000fd5b505050506040513d601f19601f82011682018060405250810190610a429190611587565b90506000826003015482131580610a5d575082600401548212155b15610a6757600190505b8015610bd65760008360050160006101000a81548160ff02191690831515021790555060008360000160009054906101000a900473ffffffffffffffffffffffffffffffffffffffff1673ffffffffffffffffffffffffffffffffffffffff168460020154604051610ad8906112b9565b60006040518083038185875af1925050503d8060008114610b15576040519150601f19603f3d011682016040523d82523d6000602084013e610b1a565b606091505b5050905080610b5e576040517f08c379a0000000000000000000000000000000000000000000000000000000008152600401610b5590611600565b60405180910390fd5b8360000160009054906101000a900473ffffffffffffffffffffffffffffffffffffffff1673ffffffffffffffffffffffffffffffffffffffff167fa413d9a7a769e2fb98933cfe1a5b28db814e29b9cc4ba5aa71ac46d1b6d5e68f8560020154604051610bcc9190610e75565b60405180910390a2505b505050610be1610dfc565b565b610beb610c69565b600073ffffffffffffffffffffffffffffffffffffffff168173ffffffffffffffffffffffffffffffffffffffff1603610c5d5760006040517f1e4fbdf7000000000000000000000000000000000000000000000000000000008152600401610c549190611169565b60405180910390fd5b610c6681610cf0565b50565b610c71610e06565b73ffffffffffffffffffffffffffffffffffffffff16610c8f61062f565b73ffffffffffffffffffffffffffffffffffffffff1614610cee57610cb2610e06565b6040517f118cdaa7000000000000000000000000000000000000000000000000000000008152600401610ce59190611169565b60405180910390fd5b565b6000600160009054906101000a900473ffffffffffffffffffffffffffffffffffffffff16905081600160006101000a81548173ffffffffffffffffffffffffffffffffffffffff021916908373ffffffffffffffffffffffffffffffffffffffff1602179055508173ffffffffffffffffffffffffffffffffffffffff168173ffffffffffffffffffffffffffffffffffffffff167f8be0079c531659141344cd1fd0a4f28419497f9722a3daafe3b4186f6b6457e060405160405180910390a35050565b600260005403610df2576040517f3ee5aeb500000000000000000000000000000000000000000000000000000000815260040160405180910390fd5b6002600081905550565b6001600081905550565b600033905090565b6040518060c00160405280600073ffffffffffffffffffffffffffffffffffffffff168152602001600081526020016000815260200160008152602001600081526020016000151581525090565b6000819050919050565b610e6f81610e5c565b82525050565b6000602082019050610e8a6000830184610e66565b92915050565b600080fd5b600073ffffffffffffffffffffffffffffffffffffffff82169050919050565b6000610ec082610e95565b9050919050565b610ed081610eb5565b8114610edb57600080fd5b50565b600081359050610eed81610ec7565b92915050565b600060208284031215610f0957610f08610e90565b5b6000610f1784828501610ede565b91505092915050565b610f2981610eb5565b82525050565b6000819050919050565b610f4281610f2f565b82525050565b60008115159050919050565b610f5d81610f48565b82525050565b600060c082019050610f786000830189610f20565b610f856020830188610e66565b610f926040830187610e66565b610f9f6060830186610f39565b610fac6080830185610f39565b610fb960a0830184610f54565b979650505050505050565b610fcd81610e5c565b8114610fd857600080fd5b50565b600081359050610fea81610fc4565b92915050565b60006020828403121561100657611005610e90565b5b600061101484828501610fdb565b91505092915050565b61102681610eb5565b82525050565b61103581610e5c565b82525050565b61104481610f2f565b82525050565b61105381610f48565b82525050565b60c08201600082015161106f600085018261101d565b506020820151611082602085018261102c565b506040820151611095604085018261102c565b5060608201516110a8606085018261103b565b5060808201516110bb608085018261103b565b5060a08201516110ce60a085018261104a565b50505050565b600060c0820190506110e96000830184611059565b92915050565b6000819050919050565b600061111461110f61110a84610e95565b6110ef565b610e95565b9050919050565b6000611126826110f9565b9050919050565b60006111388261111b565b9050919050565b6111488161112d565b82525050565b6000602082019050611163600083018461113f565b92915050565b600060208201905061117e6000830184610f20565b92915050565b60006020820190506111996000830184610f54565b92915050565b6111a881610f2f565b81146111b357600080fd5b50565b6000813590506111c58161119f565b92915050565b600080604083850312156111e2576111e1610e90565b5b60006111f0858286016111b6565b9250506020611201858286016111b6565b9150509250929050565b600082825260208201905092915050565b7f496e73756666696369656e7420636f6e74726163742062616c616e6365000000600082015250565b6000611252601d8361120b565b915061125d8261121c565b602082019050919050565b6000602082019050818103600083015261128181611245565b9050919050565b600081905092915050565b50565b60006112a3600083611288565b91506112ae82611293565b600082019050919050565b60006112c482611296565b9150819050919050565b7f4661696c656420746f2073656e642066756e6473000000000000000000000000600082015250565b600061130460148361120b565b915061130f826112ce565b602082019050919050565b60006020820190508181036000830152611333816112f7565b9050919050565b7f596f7520616c7265616479206861766520616e2061637469766520706f6c696360008201527f7900000000000000000000000000000000000000000000000000000000000000602082015250565b600061139660218361120b565b91506113a18261133a565b604082019050919050565b600060208201905081810360008301526113c581611389565b9050919050565b7f4d696e2074656d7065726174757265206d757374206265206c6573732074686160008201527f6e206d61782074656d7065726174757265000000000000000000000000000000602082015250565b600061142860318361120b565b9150611433826113cc565b604082019050919050565b600060208201905081810360008301526114578161141b565b9050919050565b7f4e487b7100000000000000000000000000000000000000000000000000000000600052601160045260246000fd5b600061149882610e5c565b91506114a383610e5c565b92508282026114b181610e5c565b915082820484148315176114c8576114c761145e565b5b5092915050565b60006060820190506114e46000830186610e66565b6114f16020830185610f39565b6114fe6040830184610f39565b949350505050565b7f4e6f2061637469766520706f6c69637920666f756e6400000000000000000000600082015250565b600061153c60168361120b565b915061154782611506565b602082019050919050565b6000602082019050818103600083015261156b8161152f565b9050919050565b6000815190506115818161119f565b92915050565b60006020828403121561159d5761159c610e90565b5b60006115ab84828501611572565b91505092915050565b7f4661696c656420746f2073656e64207061796f75740000000000000000000000600082015250565b60006115ea60158361120b565b91506115f5826115b4565b602082019050919050565b60006020820190508181036000830152611619816115dd565b905091905056fea2646970667358221220710b840b8a3087ddf7b6ca094345e4dbc96579b460363b0cd8f7d541de4f828d64736f6c63430008140033",
  "linkReferences": {},
  "deployedLinkReferences": {}
}