{
  "_format": "hh-sol-artifact-1",
  "contractName": "WeatherInsurance",
  "sourceName": "contracts/WeatherInsurance.sol",
  "abi": [
    {
      "inputs": [
        {
          "internalType": "address",
          "name": "_oracleAddress",
          "type": "address"
        }
      ],
      "stateMutability": "nonpayable",
      "type": "constructor"
    },
    {
      "anonymous": false,
      "inputs": [
        {
          "indexed": true,
          "internalType": "address",
          "name": "user",
          "type": "address"
        },
        {
          "indexed": false,
          "internalType": "uint256",
          "name": "payoutAmount",
          "type": "uint256"
        }
      ],
      "name": "PayoutProcessed",
      "type": "event"
    },
    {
      "anonymous": false,
      "inputs": [
        {
          "indexed": true,
          "internalType": "address",
          "name": "user",
          "type": "address"
        },
        {
          "indexed": false,
          "internalType": "uint256",
          "name": "amount",
          "type": "uint256"
        },
        {
          "indexed": false,
          "internalType": "uint256",
          "name": "minTemp",
          "type": "uint256"
        },
        {
          "indexed": false,
          "internalType": "uint256",
          "name": "maxTemp",
          "type": "uint256"
        }
      ],
      "name": "PolicyPurchased",
      "type": "event"
    },
    {
      "inputs": [
        {
          "internalType": "uint256",
          "name": "_minTemp",
          "type": "uint256"
        },
        {
          "internalType": "uint256",
          "name": "_maxTemp",
          "type": "uint256"
        }
      ],
      "name": "buyPolicy",
      "outputs": [],
      "stateMutability": "payable",
      "type": "function"
    },
    {
      "inputs": [],
      "name": "checkWeatherAndProcessPayout",
      "outputs": [],
      "stateMutability": "nonpayable",
      "type": "function"
    },
    {
      "inputs": [],
      "name": "insurer",
      "outputs": [
        {
          "internalType": "address",
          "name": "",
          "type": "address"
        }
      ],
      "stateMutability": "view",
      "type": "function"
    },
    {
      "inputs": [
        {
          "internalType": "address",
          "name": "",
          "type": "address"
        }
      ],
      "name": "policies",
      "outputs": [
        {
          "internalType": "address",
          "name": "policyHolder",
          "type": "address"
        },
        {
          "internalType": "uint256",
          "name": "premiumPaid",
          "type": "uint256"
        },
        {
          "internalType": "uint256",
          "name": "insuredAmount",
          "type": "uint256"
        },
        {
          "internalType": "uint256",
          "name": "minTemperature",
          "type": "uint256"
        },
        {
          "internalType": "uint256",
          "name": "maxTemperature",
          "type": "uint256"
        },
        {
          "internalType": "bool",
          "name": "isActive",
          "type": "bool"
        }
      ],
      "stateMutability": "view",
      "type": "function"
    }
  ],
  "bytecode": "0x608060405234801561001057600080fd5b50604051610bbe380380610bbe8339818101604052810190610032919061011c565b336000806101000a81548173ffffffffffffffffffffffffffffffffffffffff021916908373ffffffffffffffffffffffffffffffffffffffff16021790555080600160006101000a81548173ffffffffffffffffffffffffffffffffffffffff021916908373ffffffffffffffffffffffffffffffffffffffff16021790555050610149565b600080fd5b600073ffffffffffffffffffffffffffffffffffffffff82169050919050565b60006100e9826100be565b9050919050565b6100f9816100de565b811461010457600080fd5b50565b600081519050610116816100f0565b92915050565b600060208284031215610132576101316100b9565b5b600061014084828501610107565b91505092915050565b610a66806101586000396000f3fe60806040526004361061003f5760003560e01c806320e98698146100445780635da2460d14610086578063dbc837c5146100a2578063dcd9f1af146100cd575b600080fd5b34801561005057600080fd5b5061006b60048036038101906100669190610624565b6100e4565b60405161007d96959493929190610694565b60405180910390f35b6100a0600480360381019061009b9190610721565b61014d565b005b3480156100ae57600080fd5b506100b7610309565b6040516100c49190610761565b60405180910390f35b3480156100d957600080fd5b506100e261032d565b005b60026020528060005260406000206000915090508060000160009054906101000a900473ffffffffffffffffffffffffffffffffffffffff16908060010154908060020154908060030154908060040154908060050160009054906101000a900460ff16905086565b60003411610190576040517f08c379a0000000000000000000000000000000000000000000000000000000008152600401610187906107d9565b60405180910390fd5b6040518060c001604052803373ffffffffffffffffffffffffffffffffffffffff1681526020013481526020016002346101ca9190610828565b815260200183815260200182815260200160011515815250600260003373ffffffffffffffffffffffffffffffffffffffff1673ffffffffffffffffffffffffffffffffffffffff16815260200190815260200160002060008201518160000160006101000a81548173ffffffffffffffffffffffffffffffffffffffff021916908373ffffffffffffffffffffffffffffffffffffffff1602179055506020820151816001015560408201518160020155606082015181600301556080820151816004015560a08201518160050160006101000a81548160ff0219169083151502179055509050503373ffffffffffffffffffffffffffffffffffffffff167f8b8961810a39fd56d36e421278c7737795a230b372ac246eb46d37eae370db5f3484846040516102fd9392919061086a565b60405180910390a25050565b60008054906101000a900473ffffffffffffffffffffffffffffffffffffffff1681565b600260003373ffffffffffffffffffffffffffffffffffffffff1673ffffffffffffffffffffffffffffffffffffffff16815260200190815260200160002060050160009054906101000a900460ff166103bc576040517f08c379a00000000000000000000000000000000000000000000000000000000081526004016103b3906108ed565b60405180910390fd5b6000600160009054906101000a900473ffffffffffffffffffffffffffffffffffffffff1673ffffffffffffffffffffffffffffffffffffffff1663feaf968c6040518163ffffffff1660e01b815260040160a060405180830381865afa15801561042b573d6000803e3d6000fd5b505050506040513d601f19601f8201168201806040525081019061044f919061099a565b50505091505060008190506000600260003373ffffffffffffffffffffffffffffffffffffffff1673ffffffffffffffffffffffffffffffffffffffff168152602001908152602001600020905080600301548210806104b25750806004015482115b156105bc5760008160020154905060008260050160006101000a81548160ff0219169083151502179055508160000160009054906101000a900473ffffffffffffffffffffffffffffffffffffffff1673ffffffffffffffffffffffffffffffffffffffff166108fc829081150290604051600060405180830381858888f19350505050158015610547573d6000803e3d6000fd5b508160000160009054906101000a900473ffffffffffffffffffffffffffffffffffffffff1673ffffffffffffffffffffffffffffffffffffffff167fa413d9a7a769e2fb98933cfe1a5b28db814e29b9cc4ba5aa71ac46d1b6d5e68f826040516105b29190610a15565b60405180910390a2505b505050565b600080fd5b600073ffffffffffffffffffffffffffffffffffffffff82169050919050565b60006105f1826105c6565b9050919050565b610601816105e6565b811461060c57600080fd5b50565b60008135905061061e816105f8565b92915050565b60006020828403121561063a576106396105c1565b5b60006106488482850161060f565b91505092915050565b61065a816105e6565b82525050565b6000819050919050565b61067381610660565b82525050565b60008115159050919050565b61068e81610679565b82525050565b600060c0820190506106a96000830189610651565b6106b6602083018861066a565b6106c3604083018761066a565b6106d0606083018661066a565b6106dd608083018561066a565b6106ea60a0830184610685565b979650505050505050565b6106fe81610660565b811461070957600080fd5b50565b60008135905061071b816106f5565b92915050565b60008060408385031215610738576107376105c1565b5b60006107468582860161070c565b92505060206107578582860161070c565b9150509250929050565b60006020820190506107766000830184610651565b92915050565b600082825260208201905092915050565b7f4d7573742073656e6420455448206173207072656d69756d0000000000000000600082015250565b60006107c360188361077c565b91506107ce8261078d565b602082019050919050565b600060208201905081810360008301526107f2816107b6565b9050919050565b7f4e487b7100000000000000000000000000000000000000000000000000000000600052601160045260246000fd5b600061083382610660565b915061083e83610660565b925082820261084c81610660565b91508282048414831517610863576108626107f9565b5b5092915050565b600060608201905061087f600083018661066a565b61088c602083018561066a565b610899604083018461066a565b949350505050565b7f4e6f2061637469766520706f6c69637920666f756e6400000000000000000000600082015250565b60006108d760168361077c565b91506108e2826108a1565b602082019050919050565b60006020820190508181036000830152610906816108ca565b9050919050565b600069ffffffffffffffffffff82169050919050565b61092c8161090d565b811461093757600080fd5b50565b60008151905061094981610923565b92915050565b6000819050919050565b6109628161094f565b811461096d57600080fd5b50565b60008151905061097f81610959565b92915050565b600081519050610994816106f5565b92915050565b600080600080600060a086880312156109b6576109b56105c1565b5b60006109c48882890161093a565b95505060206109d588828901610970565b94505060406109e688828901610985565b93505060606109f788828901610985565b9250506080610a088882890161093a565b9150509295509295909350565b6000602082019050610a2a600083018461066a565b9291505056fea2646970667358221220dfa5fd40246b9fec09d1367728b59c8419013103201e6bc5076b71153aff510564736f6c634300081c0033",
  "linkReferences": {},
  "deployedLinkReferences": {}
}